S22400040064006402A606E220BF0000C1EBBF0000C0C220E8850A890002D00629FF01A8806A
S2240004200FE220BF0000C1EBBF0000C0C220E8A88606A50A890008F00718986508A8800A38
S224000440890004F00518986504A8A50A890010F00FBBE220BF0000C1EBBF0000C0C220A8DC
S224000460A50A2900E0EB4A4A4A4AAA7C6E047E049504A804B104B604BF04C804CB04A500DB
S2240004808502BBE220BF0000C1EBBF0000C0C22085004C0404A500BBE2209F0000C0EB9F23
S2240004A00000C1C2204C04041898650085004C040484064C0404A500F00284064C0404A55A
S2240004C000D00284064C04044C040498F00BC92800B0063A0AAA7CDB0480FE29053D05485A
S2240004E005520552055205520552055C056605730580058305860589058C05A505BE05C710
S22400050005D005D905E505E705EA05ED05F005F305F605F905FC05FF050206050608060B50
S224000520060E06110614061706A600E220BF0000C1EBBF0000C0C22085004C040438A90020
S22400054000E50085004C0404A9FFFF450085004C040418A502650085004C040438A502E552
S2240005600085004C0404A5006400C502D002C6004C0404A5006400C502F002C6004C040405
S2240005804C04044C04044C04044C0404A502A600F00EE01600900564004C04040ACAD0FCD8
S2240005A085004C0404A502A600F00EE01600900564004C04044ACAD0FC85004C0404A5026F
S2240005C0250085004C0404A502050085004C0404A502450085004C0404A502450049FFFF9B
S2240005E085004C040480FE4C04044C04044C04044C04044C04044C04044C04044C04044CB3
S22400060004044C04044C04044C04044C04044C04044C04044C04044C0404A9AA202C06BDCB
S224000620000008203E0628D0F64C3B0648A957203E06A9AA203E06684C3E06606060606093
S224000640000000000000000000000000000000000000000000000000000000000000000095
S224000660000000000000000000000000000000000000000000000000000000000000000075
S224000680000000000000000000000000000000000000000000000000000000000000000055
S2240006A0000000000000000000000000000000000000000000000000000000000000000035
S505000003E017
S804000400F7
