S2240004007838FBA2FF9A18FBC21064006402640E640EE60EA606E220BF0000C1EBBF000092
S224000420C0C220E8850A890002D00629FF01A8800FE220BF0000C1EBBF0000C0C220E8A87F
S2240004408606A50A890008F00718986508A8800A890004F00518986504A8A50A890010F00A
S2240004600FBBE220BF0000C1EBBF0000C0C220A8A50A2900E0EB4A4A4A4AAA7C7E048E0432
S224000480A504B804C104C604CF04D804DB04A5008502BBE220BF0000C1EBBF0000C0C22020
S2240004A085004C1404A500BBE2209F0000C0EB9F0000C1C2204C14041898650085004C1402
S2240004C00484064C1404A500F00284064C1404A500D00284064C14044C140498F00BC92853
S2240004E000B0063A0AAA7CEB0480FE39054D055805620562056205620562056C057605830B
S2240005000590059305960599059C05B505CE05D705E005E905F505F705FA0502060A060D74
S2240005200610061306160619062D0638063B063E064106620685068D06A600E220BF00001C
S224000540C1EBBF0000C0C22085004C140438A90000E50085004C1404A9FFFF450085004C34
S224000560140418A502650085004C140438A502E50085004C1404A5006400C502D002C6003C
S2240005804C1404A5006400C502F002C6004C14044C14044C14044C14044C1404A502A60029
S2240005A0F00EE01600900564004C14040ACAD0FC85004C1404A502A600F00EE01600900586
S2240005C064004C14044ACAD0FC85004C1404A502250085004C1404A502050085004C14043B
S2240005E0A502450085004C1404A502450049FFFF85004C140480FE4C1404A5003A850C4C67
S2240006001404A5003A850E4C14044C14044C14044C14044C14044C1404A608E220BF000084
S224000620C1EBBF0000C0C22085004C1404A5008508A50285064C14044C14044C14044C14CF
S22400064004A5024A08186500AA28E220B006BF0000C18004BF0000C0C22029FF0085004C33
S2240006601404A5024A08186500A8A60828E220BF0400C0BBB0069F0000C180049F0000C030
S224000680C2204C1404A50C1A85004C1404A50E1A85004C1404A9AA20A706BD00000820B9E7
S2240006A00628D0F64CB60648A95720B906A9AA20B906684CB906606060606000000000008D
S2240006C0000000000000000000000000000000000000000000000000000000000000000015
S2240006E00000000000000000000000000000000000000000000000000000000000000000F5
S2240007000000000000000000000000000000000000000000000000000000000000000000D4
S2240007200000000000000000000000000000000000000000000000000000000000000000B4
S22400FFE00000000000000000000000000000000000000000000000000000000000040000F8
S505000007E013
S804000400F7
